:020000040800F2
:1000000090040020010100083D0100083F010008A4
:1000100043010008470100084B01000800000000F0
:100020000000000000000000000000004F01000878
:1000300051010008000000005301000855010008AC
:100040001B0100081B0100081B0100081B01000820
:100050001B0100081B0100081B0100081B01000810
:100060001B0100081B0100081B0100081B01000800
:100070001B0100081B0100081B0100081B010008F0
:100080001B0100081B0100081B0100081B010008E0
:100090001B0100081B0100081B0100081B010008D0
:1000A0001B0100081B0100081B0100081B010008C0
:1000B0001B0100081B0100081B0100081B010008B0
:1000C0001B0100081B0100081B0100081B010008A0
:1000D0001B0100081B0100081B0100081B01000890
:1000E0001B0100081B0100081B010008DFF80CD0F1
:1000F00001F0C4F8004800472501000890040020E2
:100100000648804706480047FEE7FEE7FEE7FEE7B1
:10011000FEE7FEE7FEE7FEE7FEE7FEE77B110008ED
:10012000ED00000800F021F800F02EF900F0C2F810
:1001300041F2496000F071F800BFFEE7704700BF70
:10014000FEE700BFFEE700BFFEE700BFFEE7704727
:10015000704770477047000001B502E00098401EEC
:10016000009000980028F9D108BD08B501210420AD
:1001700000F0ECFAE020ADF8000010208DF803004C
:1001800003208DF802006946454800F0A3FBE021FA
:10019000434800F04CFC08BD00B501460020414A30
:1001A00010600520FFF7D8FF3F48C0F898110520E0
:1001B000FFF7D2FF01203B4A10600520FFF7CCFF7C
:1001C00000BD70B504460D46002606E004F00100AF
:1001D000FFF7E2FF6408701CC6B2AE42F6DB70BDEA
:1001E00030B505460C4600202E4908310860042130
:1001F0002846FFF7E6FF0120FFF7CEFF1421204637
:10020000FFF7DFFF01202849C1F89C0100202549A4
:1002100008602549C1F8980130BD2DE9F041064636
:10022000A6F2DF1000EBD071C1F34F042046E117B6
:1002300004EBD1614F11E11704EBD1614911A4EB3B
:1002400041111FFA81F83D46ED0145EA08052946AE
:100250000120FFF7C5FFBDE8F08170B5002600243E
:1002600013E0124931F81400FFF7D7FF0F2000F018
:100270005EF80A21012000F0E0F8C5B2B54202DDC7
:100280002E460B480470601CC4B2302CE9DB0749D1
:10029000074A127831F81200FFF7BFFF70BD000067
:1002A000000801409401214200002142000000208A
:1002B0006000002010B56FF0040000F0D0FE2E4862
:1002C00000682E49B0FBF1F02D490870084600780F
:1002D00000EB4001C1EBC0104FF6FF7101EAC00016
:1002E0002849088010BD0146254A12784A434FF03C
:1002F000E0235A6100229A611A46126942F0010213
:100300001A6100BF4FF0E022106900F001021AB13B
:1003100000F48032002AF5D04FF0E022126922F07A
:1003200001024FF0E0231A6100229A6170470146F2
:10033000144A12884A434FF0E0235A6100229A611E
:100340001A46126942F001021A6100BF4FF0E02222
:10035000106900F001021AB100F48032002AF5D0D1
:100360004FF0E022126922F001024FF0E0231A61FF
:1003700000229A61704700007C00002000127A0081
:10038000620000206400002000B587B001214FF416
:10039000017000F0DBF94FF4004000F03BF902205F
:1003A000ADF8040000208DF8070001A92E4800F0E8
:1003B00091FA2E4800F0DCFB002002908DF80C0032
:1003C0008DF80D004FF4602004900020059001206E
:1003D0008DF8180002A9254800F0F1FB01212348FF
:1003E00000F019FC214800F038FC00BF1F4800F065
:1003F00039FC0028FAD11D4800F03EFC00BF1B4824
:1004000000F03FFC0028FAD107B000BD10B504464B
:10041000072301222146154800F069FC01211348F9
:1004200000F039FC00BF0221104800F0A5FD0028B3
:10043000F9D00E4800F0C2FC10BD2DE9F04107468E
:100440000C460025002608E03846FFF7DFFF05448C
:100450000520FFF76CFF701CC6B2A642F4DBB5FBAB
:10046000F4F080B2BDE8F0810008014000240140B2
:10047000DF48006840F00100DD4908600846406838
:10048000DC490840DA49486008460068DA49084013
:10049000D74908600846006820F4802008600846B4
:1004A000406820F4FE0048604FF41F0088607047E9
:1004B000CF49096821F48031CD4A1160114609689D
:1004C00021F480211160B0F5803F03D0B0F5802F7A
:1004D0000ED106E0C649096841F48031C44A116072
:1004E00007E0C349096841F4A021C14A116000E056
:1004F00000BF00BF704710B5014600220023002056
:100500004A11012A02D1BA4C236806E0022A02D11C
:10051000B74C236A01E0B64C636A01F01F02012464
:1005200094401C400CB1012000E0002010BD38B503
:10053000002000900024002500BF3120FFF7DBFFE2
:1005400005460098401C00900098B0F5A06F01D0BF
:10055000002DF2D03120FFF7CEFF08B1012400E0DA
:100560000024204638BD01460020A14A106820F032
:10057000F80040EAC10010607047A0490860704769
:10058000024600209A4B586820F47C1042EA01038E
:100590001843974B58607047984908667047014662
:1005A0000020934A506820F00300084350607047D1
:1005B0008F48406800F00C007047014600208C4ACC
:1005C000506820F0F000084350607047014600205A
:1005D000874A506820F4E060084350607047014645
:1005E0000020834A506820F4605040EAC100506007
:1005F000704729B17E4A527A02437D4B5A7204E019
:100600007B4A527A82437A4B5A7270477B49D8317F
:100610000860704701460020754A506820F4404049
:100620000843506070470021714A20321170704AAF
:1006300082F82010012802D004280AD104E0012108
:100640006B4A2032117005E00521694A2032117091
:1006500000E000BF00BF7047694908607047644907
:10066000096A0143624A116270476549443908606A
:10067000704730B500210022002400235C4D6D68D6
:1006800005F00C0121B1042905D0082923D105E08A
:100690005C4D056022E05B4D05601FE0544D6D68C8
:1006A00005F47012524D6D6805F48034022505EB97
:1006B00092421CB9544D554305600BE04C4D6D689A
:1006C00005F400351DB1504D5543056002E04D4D18
:1006D0005543056002E04B4D056000BF00BF444D2F
:1006E0006D6805F0F0010909484D6B5C0568DD4057
:1006F00045603F4D6D6805F4E061090A434D6B5C50
:100700004568DD4085603A4D6D6805F46051C90A61
:100710003E4D6B5C4568DD40C560354D6D6805F448
:100720004041890B3A4D6B5CC568B5FBF3F505613B
:1007300030BD29B12E4A526902432D4B5A6104E063
:100740002B4A526982432A4B5A61704729B1284A81
:1007500092690243264B9A6104E0254A92698243DA
:10076000234B9A61704729B1214AD2690243204B39
:10077000DA6104E01E4AD26982431D4BDA61704798
:1007800029B11B4AD2680243194BDA6004E0184AC7
:10079000D2688243164BDA60704729B1144A126955
:1007A0000243134B1A6104E0114A12698243104B51
:1007B0001A61704712494039086070470F49C86490
:1007C00070470B49C87170470948406A40F0807013
:1007D00007494862704701460020054A92680A406E
:1007E0000AB1012000E0002070470149887270477B
:1007F000001002400000FFF8FFFFF6FE000042423A
:100800008004424200127A0000093D006600002088
:100810007600002010B50446CC48844208D101215E
:100820000420FFF7ADFF00210420FFF7A9FF46E0F9
:10083000C748844208D101210820FFF7A1FF002109
:100840000820FFF79DFF3AE0C248844208D1012109
:100850001020FFF795FF00211020FFF791FF2EE0F9
:10086000BD48844208D101212020FFF789FF0021E3
:100870002020FFF785FF22E0B848844208D10121FB
:100880004020FFF77DFF00214020FFF779FF16E0B1
:10089000B348844208D101218020FFF771FF002175
:1008A0008020FFF76DFF0AE0AE48844207D10121A6
:1008B0008015FFF765FF0021A015FFF761FF10BD50
:1008C00010B501210846FFF75BFF00210120FFF76B
:1008D00057FF10BD2DE9F0410246002500260020FB
:1008E00000230024002791F803C00CF00F0591F8B5
:1008F00003C00CF0100CBCF1000F03D091F802C043
:100900004CEA050591F800C0BCF1000F31D0146825
:1009100000202BE04FF0010C0CFA00F3B1F800C0FE
:100920000CEA03069E4220D183004FF00F0C0CFA14
:1009300003F7BC4305FA03FC4CEA040491F803C036
:10094000BCF1280F06D14FF0010C0CFA00FCC2F8E4
:1009500014C00AE091F803C0BCF1480F05D14FF074
:10096000010C0CFA00FCC2F810C0401C0828D1D3BE
:100970001460B1F800C0BCF1FF0F34DD54680020F2
:100980002EE000F1080C4FF0010808FA0CF3B1F862
:1009900000C00CEA03069E4221D183004FF00F0CE9
:1009A0000CFA03F7BC4305FA03FC4CEA040491F883
:1009B00003C0BCF1280F05D100F1080C08FA0CF8AF
:1009C000C2F8148091F803C0BCF1480F07D100F1C0
:1009D000080C4FF0010808FA0CF8C2F81080401C0F
:1009E0000828CED35460BDE8F0814FF6FF71018036
:1009F000022181700421C170704702460020936873
:100A00000B400BB1012000E00020704701468868D0
:100A100080B2704702460020D3680B400BB1012022
:100A200000E0002070470146C86880B2704701614D
:100A30007047416170470AB1016100E04161704750
:100A4000C16070474FF480320A43826181618261E4
:100A500082698269704702460020434B18684FF64E
:100A60008073184040EA021008433F4B18607047FB
:100A70003E49C8617047F0B50A46002300240021B2
:100A8000002500F00046B6F1004F02D1364EF16964
:100A900001E0354E7168C0F3034583B200F440169F
:100AA000B6F5401F08D121F070612F4E766826F010
:100AB00070662D4F7E6012E000F48016B6F5801F40
:100AC00006D1032606FA05F4A14341F0706106E061
:100AD000460D360103FA06F6B14341F0706122B1CA
:100AE000460D360103FA06F6314300F00046B6F132
:100AF000004F02D11C4EF16101E01B4E7160F0BD50
:100B000030B500228B071C0F0F2303FA04F2164B9B
:100B100008338C1053F824309343134C08348D1051
:100B200044F8253023468C1053F824308C07240FCA
:100B300000FA04F423430C4C08348D1044F825309B
:100B400030BD0A49DC3108607047000000080140F0
:100B5000000C014000100140001401400018014049
:100B6000001C014000200140000001400000204224
:100B700010B50446FA48844208D101214015FFF718
:100B8000FFFD00216015FFF7FBFD17E0F5488442EB
:100B900008D101210015FFF7F3FD00212015FFF713
:100BA000EFFD0BE0F048844208D10121C803FFF7B4
:100BB000E7FD00214FF40040FFF7E2FD10BD30B526
:100BC0000246002000235068E84C20400D790C6854
:100BD00044EA0524204350609068E54C2040D1E968
:100BE00002542C434D7944EA450420439060D06A76
:100BF00020F470000C7C641EE4B2234340EA0350EE
:100C0000D06230BD00210160017141718160C1601D
:100C100001210174704721B1826842F001028260B3
:100C200003E0826822F001028260704721B182688D
:100C300042F48072826003E0826822F480728260F3
:100C4000704710B50023CBB21AB144681C4344600E
:100C500002E044689C43446010BD816841F0080193
:100C600081607047014600208A6802F008020AB1DC
:100C7000012000E000207047816841F0040181609C
:100C80007047014600208A6802F004020AB1012080
:100C900000E00020704721B1826842F4A002826027
:100CA00003E0826822F4A0028260704701460020BF
:100CB0008A6802F480020AB1012000E00020704737
:100CC00010B50A4600210023416821F46041531EFB
:100CD00041EA4331416010BD21B1426842F40062F3
:100CE000426003E0426822F4006242607047F0B55F
:100CF00004460D4600200021092D11DDE068A5F114
:100D00000A0606EB4607072606FA07F18843A5F10F
:100D10000A0606EB460603FA06F10843E0600CE01B
:100D2000206905EB4507072606FA07F1884305EB1E
:100D3000450603FA06F108432061072A0FDA606BC3
:100D4000561E06EB86071F2606FA07F18843561E35
:100D500006EB860605FA06F10843606322E00D2AD9
:100D60000FDA206BD61F06EB86071F2606FA07F15F
:100D70008843D61F06EB860605FA06F10843206372
:100D800010E0E06AA2F10D0606EB86071F2606FAC0
:100D900007F18843A2F10D0606EB860605FA06F177
:100DA0000843E062F0BD21B1826842F480128260A3
:100DB00003E0826822F48012826070470146C86CAA
:100DC00080B2704766484C300068704721B1426875
:100DD00042F48062426003E0426822F48062426032
:100DE000704721B1426842F48052426003E0426899
:100DF00022F48052426070470A460021816821F443
:100E0000E04111438160704721B1826842F40042A1
:100E1000826003E0826822F400428260704721B160
:100E2000826842F40212826003E0826822F40212B5
:100E300082607047014600208A6802F400120AB1FD
:100E4000012000E000207047F0B504461546002060
:100E500000220026092911DDE068A1F10A0707EB4D
:100E6000470C072707FA0CF29043A1F10A0707EB9A
:100E7000470703FA07F21043E0600CE0206901EB3A
:100E8000410C072707FA0CF2904301EB410703FAE4
:100E900007F210432061A06BC0F30156EF1C06F16E
:100EA000010CA7EB0C0707EB870C1F2707FA0CF2C6
:100EB0009043EF1C06F1010CA7EB0C0707EB87072B
:100EC00001FA07F21043A063F0BD10B50A460021F5
:100ED0000023816B21F44011531E41EA03518163C9
:100EE00010BD08B5002300930090009B0B440093B5
:100EF000009B1A6008BD08B50246002000900092D1
:100F000001F12800009B184400900098006880B20E
:100F100008BD0A4600214168164B19401143416043
:100F200070474162826270470A460021416821F0A1
:100F30001F0111434160704740B1094908310968F8
:100F400041F40001064A0832116007E00449083103
:100F5000096821F40001024A08321160704700005C
:100F60000024014000280140003C0140FFFEF0FF4A
:100F7000FDF7F1FFFFFD3FFF0246002013680B4025
:100F80000BB1012000E000207047CA4302607047A7
:100F900070B502460020002300240B125568CEB223
:100FA00005EA060415681D4015B10CB1012000E0EA
:100FB000002070BD00220A12D34303607047000076
:100FC00031490143314A1160704770B50021002357
:100FD0000F22C47804B32D4C246804F4E064C4F5F3
:100FE000E064210AC1F10403CA40447804FA03F121
:100FF0008478144021430901254C0678A1550478D2
:1010000004F01F050124AC4005786D11AD0005F119
:10101000E025C5F8004109E0047804F01F0501242B
:10102000AC401C4D0678761145F8264070BD1A4A32
:101030000A400243154B1B1F1A60704739B1134A0F
:10104000121D12680243114B1B1D1A6006E00F4A65
:10105000121D126882430D4B1B1D1A607047042835
:1010600008D14FF0E021096941F004014FF0E0227E
:10107000116107E04FF0E021096921F004014FF010
:10108000E0221161704700000000FA050CED00E05D
:1010900000E400E080E100E080FFFF1F0CB50020CD
:1010A000019000906C48006840F480306A49086004
:1010B00000BF6948006800F4003000900198401CAF
:1010C0000190009818B90198B0F5A06FF1D162486D
:1010D000006800F4003010B10120009001E0002011
:1010E00000900098012843D15C48006840F010004F
:1010F0005A4908600846006820F003000860084666
:10110000006840F002000860534840685249486057
:101110000846406848600846406840F4806048607F
:101120000846406820F47C1048600846406840F457
:10113000E81048600846006840F08070086000BF12
:101140004548006800F000700028F9D04248406827
:1011500020F00300404948600846406840F0020023
:10116000486000BF3C48406800F00C000828F9D1F6
:101170000CBD10B5FFF792FF10BD10B536480068E2
:1011800040F001003449086008464068344908408E
:101190003149486008460068324908402E490860D5
:1011A0000846006820F4802008600846406820F463
:1011B000FE0048604FF41F008860FFF7DAFF4FF031
:1011C00000602949086010BD10B5002100200022F0
:1011D000214B5B6803F00C0121B1042906D00829DA
:1011E00028D107E0214B224C236027E01F4B204CE5
:1011F000236023E0184B5B6803F47010164B5B68A8
:1012000003F48032022303EB904022B9194B43438D
:10121000174C23600DE0104B5B6803F4003323B1DF
:10122000144B4343124C236003E0104B4343104CD8
:10123000236003E00D4B0E4C236000BF00BF064B44
:101240005B68C3F303130C4CE15C094B1B68CB4098
:10125000074C236010BD0000001002400020024037
:101260000000FFF8FFFFF6FE08ED00E000127A0034
:101270007C00002000093D0080000020064C074D46
:1012800006E0E06840F0010394E807009847103456
:10129000AC42F6D3FEF72EFFC0120008E0120008A1
:1012A00002E008C8121F08C1002AFAD1704770472F
:1012B000002001E001C1121F002AFBD1704700008D
:1012C000E01200080000002090000000A0120008BA
:1012D000701300089000002000040000B012000805
:1012E000E916D516C116AD169916851671165D1636
:1012F000651678168B169E16B116C416D716EA1602
:101300004916351621160D16FD1611172517391712
:101310006C1680169416A816BC16D016E416F8168D
:101320001A163F1664168916AE16D316F8161D1730
:10133000F21417153C1561158615AB15D015F5156A
:101340000000000000000000000001020304010290
:1013500003040607080902040608000000A24A0464
:101360000000000000000000010203040607080955
:04000005080000ED02
:00000001FF
